:020000040000FA
:06000000A2EF03F0120064
:020006000000F8
:08000800019E08D0019E09AE23
:1000100005D0086C091EE86A0922018E09C003F0A8
:1000200008C002F0136A126A8E0E046E056A4AEF67
:1000300001F0016A86EC01F09EEC01F001B62EEFB2
:1000400001F001A205D001BA2EEF01F035EF01F069
:1000500001BA41EF01F001A005D001B82EEF01F087
:1000600041EF01F001B835EF01F0056A7F0E0A2477
:10007000046EE86A05220F50045EE86A055A1A0EFB
:10008000106E0A6A126A136A026A036A0C50075EEB
:100090000D50085A0E50095A000E0A5A09E70C5022
:1000A00007260D5008220E500922000E0A2201D008
:1000B000128AD8900736083609360A36D890123692
:1000C000133602360336102EE1D7095008100710F8
:1000D000D8A4128A4AEF01F0016A86EC01F09EEC86
:1000E00001F001B62EEF01F001A205D001B82EEF0C
:1000F00001F035EF01F001AA05D001B02EEF01F0BB
:1001000035EF01F001B002D001A802D041EF01F0BB
:10011000056A0F500A24046EE86A05227E0E045E0A
:10012000E86A055A126A136A026A036A0E500902E3
:10013000F4CF03F0F3CF02F00D500902F350132671
:10014000F4500222000E03220E500802F350132630
:10015000F4500222000E03220C500902F350122622
:10016000F4501322000E022203220D500802F35015
:100170001226F4501322000E022203220E50070210
:10018000F3501226F4501322000E022203220C50C8
:100190000802F4501226000E1322022203220D50F0
:1001A0000702F4501226000E1322022203224AEF05
:1001B00001F0006A0EAEE2EF00F00D6C0E1EE86A70
:1001C0000E22001E09AEEAEF00F0086C091EE86A74
:1001D0000922001E7CEC03F009BEFAEF00F000AE2D
:1001E000000C086C091EE86A0922046C051EE86A06
:1001F0000522000C00BEF1EF00F00188FF0C016A3F
:1002000086EC01F001B609EF01F001A20ED001B4B5
:1002100005D07F0E096EFF0E086E1FD0800E096E8E
:10022000086A1BD0096A086A18D001B0FBD78F0E84
:100230000A60EDD77E0E0A64F5D78E0E0A5C05E0E3
:10024000D890093208320A2AF8D701A406D0086CDF
:10025000091EE86A092209AEE5D712007F0E0A6E70
:10026000FF0E096E086E076E12007F0E01BEFF0EB4
:100270000A6E02D07F0E0A6E800E096E086A076A47
:10028000F3D701AE04D0800E0A6E096AF7D70A6A66
:10029000096AF4D70350021013101210F8E005BEDB
:1002A000F0D703BE0CD004500510EBE0D890123606
:1002B0001336023603360406D8A00506F2D70550D9
:1002C000D4E10428D2E012AE11D07F0E121402E164
:1002D00013A00CD0132AE86A0222032207E3D88075
:1002E000033202321332042A0428BFE00450C9E06A
:1002F00013C007F002C008F00334096E04300A6E20
:1003000009320A9E01BE0A8E34EF01F009360A3620
:1003100002E30184017E06E101800A6A096A086A33
:10032000076A12000A2803E0D88009321200D89028
:10033000093202E101821200018612000E360F36E8
:1003400002E3018C017E06E101880F6A0E6A0D6AE4
:100350000C6A12000F2803E0D8800E321200D890E9
:080360000E32EAE1018A1200ED
:08036800D9CFE6FFE1CFD9FF78
:10037000E652DF6A1D0EDF5C02E2DF2AFBD7E552A0
:10038000E552E7CFD9FF1200D9CFE6FFE1CFD9FF81
:10039000020EE126DE6ADD6A80B2FED780A2FED7B9
:1003A00080A209D0010EE66EDFDFE552DF2A010EE2
:1003B00001E3DB2AF5D780B209D0010EE66ED4DF67
:1003C000E552DF2A010E01E3DB2AF5D7DECF14F078
:1003D000DDCF15F014C0F3FF15C0F4FF020EE15C91
:1003E00003E200D0E16AE552E16EE552E7CFD9FFC2
:1003F0001200D9CFE6FFE1CFD9FF146A156A800E4B
:10040000166E3F0E176E170E1C6EB70E1D6ED10EB8
:100410001E6E380E1F6EFD0EDBCF08F0FE0EDBCF1A
:1004200009F006EC00F007C020F008C021F009C078
:1004300022F00AC023F020C00CF021C00DF022C031
:100440000EF023C00FF01CC007F01DC008F01EC046
:1004500009F01FC00AF06CEC00F007C018F008C0EB
:1004600019F009C01AF00AC01BF018C00CF019C02E
:100470000DF01AC00EF01BC00FF014C007F015C02D
:1004800008F016C009F017C00AF019EC00F0FFECF4
:1004900000F008C08CF009C08DF08CC08AF08DC0CF
:1004A0008BF00A0E0D6E0E6A8AC008F08BC009F040
:1004B000D9EC00F004C08AF005C08BF08CC08EF03F
:1004C0008DC08FF00A0E0D6E0E6A8EC008F08FC0C0
:1004D00009F0D9EC00F008C08EF009C08FF00001DF
:1004E000090E8E1901E18F5103E1090E916F44D07D
:1004F000080E8E1901E18F5103E1080E916F3CD077
:10050000070E8E1901E18F5103E1070E916F34D070
:10051000060E8E1901E18F5103E1060E916F2CD06A
:10052000050E8E1901E18F5103E1050E916F24D064
:10053000040E8E1901E18F5103E1040E916F1CD05E
:10054000030E8E1901E18F5103E1030E916F14D058
:10055000020E8E1901E18F5103E1020E916F0CD052
:10056000010E8E1901E18F5103E1010E916F04D04C
:100570008E518F1101E1916B090E8A1901E18B51A6
:1005800003E1090E906F44D0080E8A1901E18B51E6
:1005900003E1080E906F3CD0070E8A1901E18B51E0
:1005A00003E1070E906F34D0060E8A1901E18B51DA
:1005B00003E1060E906F2CD0050E8A1901E18B51D4
:1005C00003E1050E906F24D0040E8A1901E18B51CE
:1005D00003E1040E906F1CD0030E8A1901E18B51C8
:1005E00003E1030E906F14D0020E8A1901E18B51C2
:1005F00003E1020E906F0CD0010E8A1901E18B51BC
:1006000003E1010E906F04D08A518B1101E1906BD0
:100610008F3504E28E510908000E8F5503E20E0E4D
:10062000916F906F91C08BFF90C08CFFE552E7CF28
:10063000D9FF1200946A956A92820F0EC16EA4DEF1
:10064000F3CF14F0F4CF15F014C0E6FF15C0E6FFA9
:0A065000D0DEE552E552F3D71200A8
:06065A00060EF66E000E14
:10066000F76E000EF86E00010900F550856F090065
:10067000F550866F03E1856701D03DD00900F55044
:10068000806F0900F550816F0900F550826F0900F5
:100690000900F550E96E0900F550EA6E09000900FD
:1006A0000900F550836F0900F550846F09000900B7
:1006B000F6CF87F0F7CF88F0F8CF89F080C0F6FF4B
:1006C00081C0F7FF82C0F8FF0001835302E1845329
:1006D00007E00900F550EE6E8307F8E28407F9D7CA
:1006E00087C0F6FF88C0F7FF89C0F8FF00018507C3
:0806F000000E865BBFD712006B
:0806F800056A046A100EE76EAA
:10070000D89008360936043605360D50045C0E5074
:10071000055805E30D50045E0E50055A082AE72ED1
:04072000F0D71200FC
:0C072400000EF36E00EE00F0060E01D88F
:100730001200EA6002D0EE6AFCD7F350E9601200C2
:04074000EE6AFCD78A
:0C07440015EE00F025EE00F0F86A019CB4
:100750002DEC03F0B0EC03F01AEC03F0FBD7120021
:02076000120085
:00000001FF
